:100000000C9463000C948B000C948B000C948B006C
:100010000C948B000C948B000C948B000C948B0034
:100020000C948B000C948B000C948B000C948B0024
:100030000C948B000C948B000C948B000C948B0014
:100040000C94FA050C948B000C94C8050C94A20532
:100050000C948B000C948B000C948B000C948B00F4
:100060000C948B000C948B000000000024002700EF
:100070002A0000000000250028002B0000000000DE
:1000800023002600290004040404040404040202DA
:100090000202020203030303030301020408102007
:1000A0004080010204081020010204081020000012
:1000B0000008000201000003040700000000000027
:1000C00000004406BE0811241FBECFEFD8E0DEBFFB
:1000D000CDBF23E0A4E3B2E001C01D92A83DB2076A
:1000E000E1F712E0A0E0B1E0E4ECF6E102C0059037
:1000F0000D92A433B107D9F710E0C2E6D0E004C0F6
:100100002197FE010E945509C136D107C9F70E9407
:100110008C070C94550B0C940000FC012481358154
:100120006217730720F480819181009729F410925F
:100130003D028DE392E00895860F971F0895AF92D8
:10014000BF92CF92DF92EF92FF920F931F93CF93C4
:10015000DF936C017B018B01040F151FEB015E0126
:10016000AE18BF08C017D10759F06991D601ED91BB
:10017000FC910190F081E02DC6010995892B79F75A
:10018000C501DF91CF911F910F91FF90EF90DF900C
:10019000CF90BF90AF900895FC01538D448D252FD3
:1001A00030E0842F90E0821B930B541710F0CF9611
:1001B000089501970895FC01918D828D981761F043
:1001C000A28DAE0FBF2FB11D5D968C91928D9F5F5A
:1001D0009F73928F90E008958FEF9FEF0895FC0139
:1001E000918D828D981731F0828DE80FF11D858DEC
:1001F00090E008958FEF9FEF0895FC01918D228D7F
:10020000892F90E0805C9F4F821B91098F73992703
:10021000089581E492E00E94FD0021E0892B09F419
:1002200020E0822F089580E090E0892B29F00E9441
:10023000090181110C9400000895FC01A48DA80F00
:10024000B92FB11DA35ABF4F2C91848D90E0019618
:100250008F739927848FA689B7892C93A089B18938
:100260008C91837080648C93938D848D981306C0D9
:100270000288F389E02D80818F7D80830895EF923D
:10028000FF920F931F93CF93DF93EC0181E0888F50
:100290009B8D8C8D98131AC0E889F989808185FF20
:1002A00015C09FB7F894EE89FF896083E889F989C2
:1002B00080818370806480839FBF81E090E0DF91C4
:1002C000CF911F910F91FF90EF900895F62E0B8D17
:1002D00010E00F5F1F4F0F731127E02E8C8D8E11D2
:1002E0000CC00FB607FCFACFE889F989808185FF39
:1002F000F5CFCE010E941D01F1CFEB8DEC0FFD2F4C
:10030000F11DE35AFF4FF0829FB7F8940B8FEA89F3
:10031000FB8980818062CFCFCF93DF93EC01888D02
:100320008823B9F0AA89BB89E889F9898C9185FD70
:1003300003C0808186FD0DC00FB607FCF7CF8C91FE
:1003400085FFF2CF808185FFEDCFCE010E941D0198
:10035000E9CFDF91CF910895833081F028F4813087
:1003600099F08230A9F008958730A9F08830C9F05B
:100370008430B1F4809180008F7D03C08091800033
:100380008F7780938000089584B58F7784BD08951A
:1003900084B58F7DFBCF8091B0008F778093B000C4
:1003A00008958091B0008F7DF9CF1F93CF93DF9395
:1003B000282F30E0F901E255FF4F8491F901E6560C
:1003C000FF4FD491F901EA57FF4FC491CC23A9F014
:1003D000162F81110E94AC01EC2FF0E0EE0FFF1FF1
:1003E000EE58FF4FA591B4918FB7F894EC9111118D
:1003F00008C0D095DE23DC938FBFDF91CF911F9192
:100400000895DE2BF8CFCF93DF9390E0FC01E65602
:10041000FF4F24918A579F4FFC0184918823D1F08C
:1004200090E0880F991FFC01E859FF4FA591B49106
:10043000FC01EE58FF4FC591D491623071F49FB723
:10044000F8943C91822F809583238C93E8812E2B06
:1004500028839FBFDF91CF9108958FB7F894EC91D7
:100460002E2B2C938FBFF6CF3FB7F8948091390293
:1004700090913A02A0913B02B0913C0226B5A89B14
:1004800005C02F3F19F00196A11DB11D3FBFBA2F26
:10049000A92F982F8827BC01CD01620F711D811DE6
:1004A000911D42E0660F771F881F991F4A95D1F76B
:1004B00008958F929F92AF92BF92CF92DF92EF9268
:1004C000FF924B015C010E9434026B017C010E948F
:1004D00034026C197D098E099F09683E73408105BD
:1004E0009105A8F321E0821A9108A108B10888EECD
:1004F000C80E83E0D81EE11CF11C81149104A104F4
:10050000B10429F7FF90EF90DF90CF90BF90AF90AC
:100510009F908F9008954F925F926F927F92AF92CB
:10052000BF92CF92DF92EF92FF92CF93DF932FB7DC
:10053000F894C0903502D0903602E0903702F090E7
:1005400038022FBF181619060CF05DC0EB012C0104
:1005500061E08DE00E94D5019E01DD0F440B550B3B
:1005600060E472E48FE090E00E943609E90137FD13
:100570002196D595C7955E01AA0CBB1CAA0CBB1C85
:1005800085E0A81AB10880E090E0DC01052C000CA1
:100590006608770884159505A605B70524F561E07A
:1005A00085E00E94D501C230D10518F0C501019740
:1005B000F1F760E085E00E94D501C230D10518F066
:1005C000C5010197F1F72FB7F8948091350290910A
:1005D0003602A0913702B09138022FBF8C199D09C5
:1005E000AE09BF09D7CF60E08DE0DF91CF91FF90DA
:1005F000EF90DF90CF90BF90AF907F906F905F9023
:100600004F900C94D50160E870E080E090E0DF91BD
:10061000CF91FF90EF90DF90CF90BF90AF907F9001
:100620006F905F904F900C9459028F929F92AF926F
:10063000BF920F931F93CF93DF93CDB7DEB7A197F0
:100640000FB6F894DEBF0FBECDBF19A2423008F43A
:100650004AE08E010F5D1F4F842E912CB12CA12CEE
:10066000A50194010E941409E62FB901CA01EA30DC
:1006700044F5E05DD801EE938D01232B242B252B2F
:1006800079F790E080E0109769F0FD01019000207B
:10069000E9F73197AF014A1B5B0BBD0181E492E0A2
:1006A0000E949F00A1960FB6F894DEBF0FBECDBF8B
:1006B000DF91CF911F910F91BF90AF909F908F903E
:1006C0000895E95CD7CF42E050E068E971E081E449
:1006D00092E00C949F00CF93DF93FC0144815581FD
:1006E0006081718181E492E00E949F00EC010E9490
:1006F00063038C0F9D1FDF91CF910895CF92DF92FE
:10070000EF92FF920F931F93CF93DF938C01D0E072
:10071000C0E080ECE82EF12C90E4C92ED12CF80139
:1007200084819581C817D90708F040C0BE01C8016F
:100730000E948D00FC01608181E492E00E943F01F3
:10074000BE01C8010E948D00FC0180818033A1F4AC
:100750001092400210923F0268E572E080913F02E1
:10076000909140020E948B0260E470E080E090E093
:100770000E9459022196D3CFBE01C8010E948D006C
:10078000FC018081813329F4D0924002C0923F0263
:10079000E3CFBE01C8010E948D00FC01808182333D
:1007A000D9F6F0924002E0923F02D6CFDF91CF918E
:1007B0001F910F91FF90EF90DF90CF900C94630307
:1007C0000F931F93CF93DF93EC018881998100975A
:1007D00059F02A813B812617370730F081E0DF91FD
:1007E000CF911F910F9108958B016F5F7F4F0E94F2
:1007F000800A009759F0998388831B830A832C8190
:100800003D81232B59F7FC011082E8CF80E0E7CF30
:10081000CF93DF93EC0188819981009711F00E94BA
:10082000F709198218821D821C821B821A82DF91AD
:10083000CF910895EF92FF920F931F93CF93DF9381
:1008400000D0CDB7DEB78C0180E389831A82F8012E
:10085000E480F580FFEFEF1AFF0AB701C8010E949C
:10086000E0038823C9F0F8012081318184819581DA
:10087000BE016F5F7F4F820F931F0E944E0BF801E6
:10088000F582E482C8010F900F90DF91CF911F9104
:100890000F91FF90EF900895C8010E940804F2CFD5
:1008A000EF92FF920F931F93CF93DF93EC01FB0125
:1008B000E080F180E114F10411F10481158101154A
:1008C0001105A9F08C819D81080F191FB801CE0177
:1008D0000E94E003882399F0288139818C819D81D1
:1008E000B701820F931F0E944E0B1D830C83CE0114
:1008F000DF91CF911F910F91FF90EF900895CE015E
:100900000E940804F4CFEF92FF920F931F93CF93AE
:10091000DF93EC018617970781F0FB0100811181BD
:100920000115110539F0E480F580B7010E94E0035C
:1009300081110BC0CE010E940804CE01DF91CF913E
:100940001F910F91FF90EF900895FD82EC82B80106
:10095000888199810E944E0BF0CFFC011182108298
:1009600013821282158214820C948304EF92FF92F8
:100970000F931F93CF93DF93EC017B0119821882B1
:100980001B821A821D821C82FB0101900020E9F764
:1009900031978F01061B170BB8010E94E0038111EC
:1009A00009C0CE01DF91CF911F910F91FF90EF9081
:1009B0000C9408041D830C83B70188819981DF9111
:1009C000CF911F910F91FF90EF900C944E0BFC0173
:1009D00080819181009711F00C94F70908958F920E
:1009E0009F92BF92CF92DF92EF92FF920F931F934D
:1009F000CF93DF9300D000D000D0CDB7DEB76C012D
:100A00007B01FB01008111810115110571F0F801D5
:100A100081918F01882349F0082E000C990B0E94C8
:100A20003D0BF80131978083F2CF6AE971E0C6018E
:100A30000E94B60410E000E086E0B82EF701848141
:100A400095810817190708F06AC0B801C7010E940C
:100A50008D00FC01808181349CF1B801C7010E94A6
:100A60008D00FC0180818B355CF5B801C7010E94C7
:100A70008D00FC018081082E000C990B8054910997
:100A8000B89E9001B99E300D1124C9018A509D4F26
:100A90004C01B601CE0101960E94AD04B401CE0115
:100AA00001960E9450040E941A04BC01C6010E94D3
:100AB0008304CE0101960E94E7040F5F1F4FBECF53
:100AC000B801C7010E948D00FC0180818033A4F42D
:100AD000B801C7010E948D00FC018081803269F756
:100AE000B601CE0101960E94AD0466EF72E0CE0120
:100AF00001960E945004D9CFB801C7010E948D0011
:100B0000FC0180818A3324F7B801C7010E948D005F
:100B1000FC018081082E000C990B4597B1CFC601CE
:100B200026960FB6F894DEBF0FBECDBFDF91CF91F2
:100B30001F910F91FF90EF90DF90CF90BF909F900B
:100B40008F9008951F920F920FB60F9211242F933A
:100B50003F934F935F936F937F938F939F93AF9345
:100B6000BF93EF93FF9381E492E00E941D01FF91F8
:100B7000EF91BF91AF919F918F917F916F915F9115
:100B80004F913F912F910F900FBE0F901F9018958E
:100B90001F920F920FB60F9211242F938F939F9352
:100BA000EF93FF93E0915102F09152028081E09126
:100BB0005702F091580282FD1BC0908180915A0229
:100BC0008F5F8F7320915B02821741F0E0915A0290
:100BD000F0E0EF5BFD4F958F80935A02FF91EF910C
:100BE0009F918F912F910F900FBE0F901F9018958E
:100BF0008081F4CF1F920F920FB60F9211242F9382
:100C00003F938F939F93AF93BF93809135029091C1
:100C10003602A0913702B09138023091340223E0BD
:100C2000230F2D3758F50196A11DB11D20933402D5
:100C30008093350290933602A0933702B093380226
:100C40008091390290913A02A0913B02B0913C020E
:100C50000196A11DB11D8093390290933A02A09391
:100C60003B02B0933C02BF91AF919F918F913F9116
:100C70002F910F900FBE0F901F90189526E8230F0D
:100C80000296A11DB11DD2CFCF93DF9300D000D02B
:100C900000D0CDB7DEB7E1E4F2E01382128288EE35
:100CA00093E0A0E0B0E084839583A683B7838AE8CD
:100CB00091E09183808385EC90E09587848784EC34
:100CC00090E09787868780EC90E0918B808B81EC19
:100CD00090E0938B828B82EC90E0958B848B86ECFA
:100CE00090E0978B868B118E128E138E148E6BE98B
:100CF00071E086EF92E00E94B6046BED71E08CEF3C
:100D000092E00E94B6046BEE71E082E093E00E94F4
:100D1000B6046DE971E088E093E00E94B60468EAE9
:100D200071E08EE093E00E94B60462EE71E084E12F
:100D300093E00E94B60462EA71E08AE193E00E94C7
:100D4000B6046DEA71E080E293E00E94B6046FEDB4
:100D500071E086E293E00E94B60461EE71E08CE2FD
:100D600093E00E94B6046DEC71E082E393E00E9490
:100D7000B60462EB71E088E393E00E94B60467EA90
:100D800071E08EE393E00E94B60465ED71E084E4C7
:100D900093E00E94B60464EA71E08AE493E00E9462
:100DA000B6046EEC71E080E593E00E94B6046CEA54
:100DB00071E086E593E00E94B60461EB71E08CE59A
:100DC00093E00E94B60463EA71E082E693E00E9439
:100DD000B60460EE71E088E693E00E94B6046CED24
:100DE00071E08EE693E00E94B6046AED71E084E75C
:100DF00093E00E94B60469ED71E08AE793E00E94F7
:100E0000B60464ED71E080E893E00E94B60466EBFE
:100E100071E086E893E00E94B6046BEB71E08CE829
:100E200093E00E94B60461EF71E082E993E00E94D2
:100E3000B60460EC71E088E993E00E94B60466ECC9
:100E400071E08EE993E00E94B6046CEC71E084EAF4
:100E500093E00E94B60462ED71E08AEA93E00E949A
:100E6000B60468ED71E080EB93E00E94B6046EED8D
:100E700071E086EB93E00E94B60464EE71E08CEBC7
:100E800093E00E94B6046AEE71E082EC93E00E9467
:100E9000B60460EF71E088EC93E00E94B60466EF60
:100EA00071E08EEC93E00E94B6046CEF71E080EF8D
:100EB00092E00E94B60460EF72E0CE0101960E94BB
:100EC000AD04BE016F5F7F4F8AEE92E00E94EF0497
:100ED000CE0101960E94E70462E172E084EE92E0A6
:100EE0000E94B60464EE72E0CE0101960E94AD0449
:100EF000BE016F5F7F4F8EED92E00E94EF04CE0146
:100F000001960E94E70426960FB6F894DEBF0FBE46
:100F1000CDBFDF91CF910895CF93DF9300D000D064
:100F200000D0CDB7DEB7789484B5826084BD84B537
:100F3000816084BD85B5826085BD85B5816085BDD4
:100F400080916E00816080936E001092810080918C
:100F50008100826080938100809181008160809314
:100F60008100809180008160809380008091B10039
:100F700084608093B1008091B00081608093B00064
:100F800080917A00846080937A0080917A008260F8
:100F900080937A0080917A00816080937A008091BA
:100FA0007A00806880937A001092C10061E087E047
:100FB0000E94030262E08AE00E94030261E085E091
:100FC0000E94030261E08DE00E940302E8EBF0E082
:100FD0008491E4EAF0E00491E0E9F0E0149170E03B
:100FE00060E0112399F081110E94AC01E12FF0E043
:100FF000EE0FFF1FE458FF4FA591B491EC91E02351
:1010000091E080E009F490E0692F782F862F8170BD
:1010100080933E02E0915102F091520282E080837F
:10102000E0914D02F0914E021082E0914F02F0915A
:10103000500280E1808310925902E0915502F091B4
:10104000560286E08083E0915302F0915402808141
:1010500080618083E0915302F09154028081886026
:101060008083E0915302F0915402808180688083F4
:10107000E0915302F091540280818F7D8083072E8E
:10108000000C880B990B4AE00E9415030E94630331
:1010900080EF92E00E946B038AEE92E00E946B0365
:1010A00084EE92E00E946B038EED92E00E946B034F
:1010B00094E6D92E20E0A22E20E0B22E61E087E057
:1010C0000E94D50103E010E086E0E82E81E0F82ED2
:1010D00086E8E81681E0F806F1F0F7018191919138
:1010E0007F018130910569F462E370E080E090E077
:1010F0000E94590264E170E080E090E00E94590291
:10110000E7CFD89EB001D99E700D112482E390E004
:101110000E948B02EFCF01501109B1F664EF71E02C
:1011200080E090E00E94590280913E026EED72E0F4
:10113000811102C06AEE72E0CE0101960E94AD04F8
:10114000CE0101960E947E03CE0101960E94E70423
:1011500060E087E00E94D50160E375E780E090E001
:101160000E945902A114B10409F4A8CF0E940901F8
:10117000882309F4A3CF0E940000A0CFCF93DF9370
:101180008EED92E00E94E70484EE92E00E94E70474
:101190008AEE92E00E94E70480EF92E00E94E7046A
:1011A000C4EDD3E02697CE010E94E70482E0C63F5B
:1011B000D807C1F7DF91CF9108952F923F924F92B8
:1011C0005F926F927F928F929F92AF92BF92CF92D7
:1011D000DF92EF92FF920F931F93CF93DF93CDB7E0
:1011E000DEB7CA1BDB0B0FB6F894DEBF0FBECDBF58
:1011F00009942A88398848885F846E847D848C8429
:101200009B84AA84B984C884DF80EE80FD800C8131
:101210001B81AA81B981CE0FD11D0FB6F894DEBF14
:101220000FBECDBFED010895A1E21A2EAA1BBB1B74
:10123000FD010DC0AA1FBB1FEE1FFF1FA217B307A2
:10124000E407F50720F0A21BB30BE40BF50B661FB8
:10125000771F881F991F1A9469F76095709580957C
:1012600090959B01AC01BD01CF010895052E97FB20
:101270001EF400940E944D0957FD07D00E941409E6
:1012800007FC03D04EF40C944D09509540953095D1
:1012900021953F4F4F4F5F4F0895909580957095E2
:1012A00061957F4F8F4F9F4F0895EE0FFF1F059061
:1012B000F491E02D09940F931F93CF93DF93823025
:1012C000910510F482E090E0E091D603F091D7030D
:1012D00030E020E0B0E0A0E0309799F4211531052E
:1012E00009F44AC0281B390B24303105D8F58A810E
:1012F0009B816115710589F1FB0193838283FE0156
:1013000011C0408151810281138148175907E0F0D3
:101310004817590799F4109761F012960C93129799
:1013200013961C933296CF01DF91CF911F910F91AD
:1013300008950093D6031093D703F4CF21153105F8
:1013400051F04217530738F0A901DB019A01BD01A2
:10135000DF01F801C1CFEF01F9CF9093D70380935C
:10136000D603CDCFFE01E20FF31F8193919322505C
:10137000310939832883D7CF2091D4033091D50305
:10138000232B41F420910201309103013093D503C6
:101390002093D403209100013091010121153105E2
:1013A00041F42DB73EB74091040150910501241B33
:1013B000350BE091D403F091D503E217F307A0F4C5
:1013C0002E1B3F0B2817390778F0AC014E5F5F4F9B
:1013D0002417350748F04E0F5F1F5093D5034093F5
:1013E000D403819391939FCFF0E0E0E09CCFCF9323
:1013F000DF930097E9F0FC01329713821282A091EB
:10140000D603B091D703ED0130E020E01097A1F4AE
:1014100020813181820F931F2091D4033091D50315
:101420002817390709F061C0F093D503E093D4037E
:10143000DF91CF910895EA01CE17DF07E8F54A81E1
:101440005B819E0141155105B1F7E901FB83EA83F8
:1014500049915991C40FD51FEC17FD0761F48081A4
:1014600091810296840F951FE90199838883828177
:1014700093819B838A83F0E0E0E012968D919C91AA
:1014800013970097B9F52D913C911197CD010296D4
:10149000820F931F2091D4033091D5032817390769
:1014A00039F6309751F51092D7031092D603B093C6
:1014B000D503A093D403BCCFD383C2834081518191
:1014C000840F951FC817D90761F44E5F5F4F88815D
:1014D0009981480F591F518340838A819B8193834F
:1014E00082832115310509F0B0CFF093D703E09343
:1014F000D6039ECFFD01DC01C0CF13821282D7CF6D
:10150000B0E0A0E0E6E8FAE00C94DF088C01009778
:1015100051F4CB010E945B098C01C801CDB7DEB745
:10152000E0E10C94FB08FC01E60FF71F9C01225040
:101530003109E217F30708F49DC0D901CD91DC9180
:101540001197C617D70798F0C530D10530F3CE01F3
:1015500004978617970708F3C61BD70B2297C193EA
:10156000D1936D937C93CF010E94F709D6CF5B0195
:10157000AC1ABD0A4C018C0E9D1EA091D603B091F1
:10158000D703512C412CF12CE12C109731F580918F
:10159000D4039091D5038815990509F05CC04616CF
:1015A000570608F058C08091000190910101009702
:1015B00041F48DB79EB74091040150910501841B01
:1015C000950BE817F90708F055C0F093D503E093A1
:1015D000D403F90171836083A0CF8D919C91119701
:1015E00012966C90129713967C901397A815B905D4
:1015F00059F56C0142E0C40ED11CCA14DB0420F181
:10160000AC014A195B09DA011296159780F06282E3
:10161000738251834083D9016D937C93E114F1046B
:1016200071F0D7011396FC93EE93129776CF229622
:101630008C0F9D1FF90191838083F301EFCFF0930D
:10164000D703E093D60369CF4816590608F42C0156
:101650007D01D3019ACFCB010E945B097C010097E9
:1016600049F0AE01B8010E94450BC8010E94F7097C
:10167000870153CF10E000E050CF911108958156BB
:101680008A5108F4805285580895FB01DC0102C09C
:1016900001900D9241505040D8F70895FB01DC01B4
:1016A00001900D920020E1F7089510E0C2E6D0E02D
:1016B00004C0FE010E9455092196C336D107C9F71F
:0416C000F894FFCFCC
:1016C4000000D803800001000500010005000100AE
:1016D40003000300030001000500010005000100F0
:1016E40003000300030001000600010006000100DE
:1016F40004000400040001000600010006000100CB
:1017040004000400040001000700010007000100B8
:1017140005000500050001000700010007000100A5
:101724000500050005000100080001000800010093
:101734000600060006000100080001000800010080
:10174400060006000600000000003F019F00CC00D8
:101754008C01FD00DB00EF000D0A00300032313255
:1017640031003131323100313231310031323231F4
:101774000032323132003231313200323132320011
:10178400323232323200313232323200313132329C
:1017940032003131313232003131313132003131C4
:1017A40031313100323131313100323231313100B5
:1017B4003232323131003232323231004B4439521A
:1017C400434120464F58204B443952434120464F11
:1017D40058004B443952434120466F7820666F7558
:1017E4006E6420466F7820466F756E64204B4439D2
:0417F400524341001B
:00000001FF
